{
	"contracts/Day2.sol": {
		"Session02": {
			"abi": [
				{
					"inputs": [
						{
							"internalType": "string",
							"name": "_message",
							"type": "string"
						}
					],
					"stateMutability": "nonpayable",
					"type": "constructor"
				},
				{
					"inputs": [
						{
							"internalType": "int256",
							"name": "_number",
							"type": "int256"
						}
					],
					"name": "checkMessage",
					"outputs": [
						{
							"internalType": "string",
							"name": "",
							"type": "string"
						}
					],
					"stateMutability": "view",
					"type": "function"
				},
				{
					"inputs": [
						{
							"internalType": "int256",
							"name": "_number",
							"type": "int256"
						}
					],
					"name": "count",
					"outputs": [
						{
							"internalType": "int256",
							"name": "",
							"type": "int256"
						}
					],
					"stateMutability": "pure",
					"type": "function"
				},
				{
					"inputs": [
						{
							"internalType": "int256",
							"name": "_num",
							"type": "int256"
						}
					],
					"name": "countAgain",
					"outputs": [
						{
							"internalType": "int256",
							"name": "",
							"type": "int256"
						}
					],
					"stateMutability": "pure",
					"type": "function"
				}
			],
			"devdoc": {
				"kind": "dev",
				"methods": {},
				"version": 1
			},
			"evm": {
				"assembly": "    /* \"contracts/Day2.sol\":62:751  contract Session02 {... */\n  mstore(0x40, 0x80)\n    /* \"contracts/Day2.sol\":108:179  constructor(string memory _message) {... */\n  callvalue\n  dup1\n  iszero\n  tag_1\n  jumpi\n  revert(0x00, 0x00)\ntag_1:\n  pop\n  mload(0x40)\n  sub(codesize, bytecodeSize)\n  dup1\n  bytecodeSize\n  dup4\n  codecopy\n  dup2\n  dup2\n  add\n  0x40\n  mstore\n  dup2\n  add\n  swap1\n  tag_2\n  swap2\n  swap1\n  tag_3\n  jump\t// in\ntag_2:\n    /* \"contracts/Day2.sol\":164:172  _message */\n  dup1\n    /* \"contracts/Day2.sol\":154:161  message */\n  0x00\n    /* \"contracts/Day2.sol\":154:172  message = _message */\n  swap1\n  dup2\n  tag_6\n  swap2\n  swap1\n  tag_7\n  jump\t// in\ntag_6:\n  pop\n    /* \"contracts/Day2.sol\":108:179  constructor(string memory _message) {... */\n  pop\n    /* \"contracts/Day2.sol\":62:751  contract Session02 {... */\n  jump(tag_8)\n    /* \"#utility.yul\":7:82   */\ntag_9:\n    /* \"#utility.yul\":40:46   */\n  0x00\n    /* \"#utility.yul\":73:75   */\n  0x40\n    /* \"#utility.yul\":67:76   */\n  mload\n    /* \"#utility.yul\":57:76   */\n  swap1\n  pop\n    /* \"#utility.yul\":7:82   */\n  swap1\n  jump\t// out\n    /* \"#utility.yul\":88:205   */\ntag_10:\n    /* \"#utility.yul\":197:198   */\n  0x00\n    /* \"#utility.yul\":194:195   */\n  0x00\n    /* \"#utility.yul\":187:199   */\n  revert\n    /* \"#utility.yul\":211:328   */\ntag_11:\n    /* \"#utility.yul\":320:321   */\n  0x00\n    /* \"#utility.yul\":317:318   */\n  0x00\n    /* \"#utility.yul\":310:322   */\n  revert\n    /* \"#utility.yul\":334:451   */\ntag_12:\n    /* \"#utility.yul\":443:444   */\n  0x00\n    /* \"#utility.yul\":440:441   */\n  0x00\n    /* \"#utility.yul\":433:445   */\n  revert\n    /* \"#utility.yul\":457:574   */\ntag_13:\n    /* \"#utility.yul\":566:567   */\n  0x00\n    /* \"#utility.yul\":563:564   */\n  0x00\n    /* \"#utility.yul\":556:568   */\n  revert\n    /* \"#utility.yul\":580:682   */\ntag_14:\n    /* \"#utility.yul\":621:627   */\n  0x00\n    /* \"#utility.yul\":672:674   */\n  0x1f\n    /* \"#utility.yul\":668:675   */\n  not\n    /* \"#utility.yul\":663:665   */\n  0x1f\n    /* \"#utility.yul\":656:661   */\n  dup4\n    /* \"#utility.yul\":652:666   */\n  add\n    /* \"#utility.yul\":648:676   */\n  and\n    /* \"#utility.yul\":638:676   */\n  swap1\n  pop\n    /* \"#utility.yul\":580:682   */\n  swap2\n  swap1\n  pop\n  jump\t// out\n    /* \"#utility.yul\":688:868   */\ntag_15:\n    /* \"#utility.yul\":736:813   */\n  0x4e487b7100000000000000000000000000000000000000000000000000000000\n    /* \"#utility.yul\":733:734   */\n  0x00\n    /* \"#utility.yul\":726:814   */\n  mstore\n    /* \"#utility.yul\":833:837   */\n  0x41\n    /* \"#utility.yul\":830:831   */\n  0x04\n    /* \"#utility.yul\":823:838   */\n  mstore\n    /* \"#utility.yul\":857:861   */\n  0x24\n    /* \"#utility.yul\":854:855   */\n  0x00\n    /* \"#utility.yul\":847:862   */\n  revert\n    /* \"#utility.yul\":874:1155   */\ntag_16:\n    /* \"#utility.yul\":957:984   */\n  tag_50\n    /* \"#utility.yul\":979:983   */\n  dup3\n    /* \"#utility.yul\":957:984   */\n  tag_14\n  jump\t// in\ntag_50:\n    /* \"#utility.yul\":949:955   */\n  dup2\n    /* \"#utility.yul\":945:985   */\n  add\n    /* \"#utility.yul\":1087:1093   */\n  dup2\n    /* \"#utility.yul\":1075:1085   */\n  dup2\n    /* \"#utility.yul\":1072:1094   */\n  lt\n    /* \"#utility.yul\":1051:1069   */\n  0xffffffffffffffff\n    /* \"#utility.yul\":1039:1049   */\n  dup3\n    /* \"#utility.yul\":1036:1070   */\n  gt\n    /* \"#utility.yul\":1033:1095   */\n  or\n    /* \"#utility.yul\":1030:1118   */\n  iszero\n  tag_51\n  jumpi\n    /* \"#utility.yul\":1098:1116   */\n  tag_52\n  tag_15\n  jump\t// in\ntag_52:\n    /* \"#utility.yul\":1030:1118   */\ntag_51:\n    /* \"#utility.yul\":1138:1148   */\n  dup1\n    /* \"#utility.yul\":1134:1136   */\n  0x40\n    /* \"#utility.yul\":1127:1149   */\n  mstore\n    /* \"#utility.yul\":917:1155   */\n  pop\n    /* \"#utility.yul\":874:1155   */\n  pop\n  pop\n  jump\t// out\n    /* \"#utility.yul\":1161:1290   */\ntag_17:\n    /* \"#utility.yul\":1195:1201   */\n  0x00\n    /* \"#utility.yul\":1222:1242   */\n  tag_54\n  tag_9\n  jump\t// in\ntag_54:\n    /* \"#utility.yul\":1212:1242   */\n  swap1\n  pop\n    /* \"#utility.yul\":1251:1284   */\n  tag_55\n    /* \"#utility.yul\":1279:1283   */\n  dup3\n    /* \"#utility.yul\":1271:1277   */\n  dup3\n    /* \"#utility.yul\":1251:1284   */\n  tag_16\n  jump\t// in\ntag_55:\n    /* \"#utility.yul\":1161:1290   */\n  swap2\n  swap1\n  pop\n  jump\t// out\n    /* \"#utility.yul\":1296:1604   */\ntag_18:\n    /* \"#utility.yul\":1358:1362   */\n  0x00\n    /* \"#utility.yul\":1448:1466   */\n  0xffffffffffffffff\n    /* \"#utility.yul\":1440:1446   */\n  dup3\n    /* \"#utility.yul\":1437:1467   */\n  gt\n    /* \"#utility.yul\":1434:1490   */\n  iszero\n  tag_57\n  jumpi\n    /* \"#utility.yul\":1470:1488   */\n  tag_58\n  tag_15\n  jump\t// in\ntag_58:\n    /* \"#utility.yul\":1434:1490   */\ntag_57:\n    /* \"#utility.yul\":1508:1537   */\n  tag_59\n    /* \"#utility.yul\":1530:1536   */\n  dup3\n    /* \"#utility.yul\":1508:1537   */\n  tag_14\n  jump\t// in\ntag_59:\n    /* \"#utility.yul\":1500:1537   */\n  swap1\n  pop\n    /* \"#utility.yul\":1592:1596   */\n  0x20\n    /* \"#utility.yul\":1586:1590   */\n  dup2\n    /* \"#utility.yul\":1582:1597   */\n  add\n    /* \"#utility.yul\":1574:1597   */\n  swap1\n  pop\n    /* \"#utility.yul\":1296:1604   */\n  swap2\n  swap1\n  pop\n  jump\t// out\n    /* \"#utility.yul\":1610:1749   */\ntag_19:\n    /* \"#utility.yul\":1699:1705   */\n  dup3\n    /* \"#utility.yul\":1694:1697   */\n  dup2\n    /* \"#utility.yul\":1689:1692   */\n  dup4\n    /* \"#utility.yul\":1683:1706   */\n  mcopy\n    /* \"#utility.yul\":1740:1741   */\n  0x00\n    /* \"#utility.yul\":1731:1737   */\n  dup4\n    /* \"#utility.yul\":1726:1729   */\n  dup4\n    /* \"#utility.yul\":1722:1738   */\n  add\n    /* \"#utility.yul\":1715:1742   */\n  mstore\n    /* \"#utility.yul\":1610:1749   */\n  pop\n  pop\n  pop\n  jump\t// out\n    /* \"#utility.yul\":1755:2189   */\ntag_20:\n    /* \"#utility.yul\":1844:1849   */\n  0x00\n    /* \"#utility.yul\":1869:1935   */\n  tag_62\n    /* \"#utility.yul\":1885:1934   */\n  tag_63\n    /* \"#utility.yul\":1927:1933   */\n  dup5\n    /* \"#utility.yul\":1885:1934   */\n  tag_18\n  jump\t// in\ntag_63:\n    /* \"#utility.yul\":1869:1935   */\n  tag_17\n  jump\t// in\ntag_62:\n    /* \"#utility.yul\":1860:1935   */\n  swap1\n  pop\n    /* \"#utility.yul\":1958:1964   */\n  dup3\n    /* \"#utility.yul\":1951:1956   */\n  dup2\n    /* \"#utility.yul\":1944:1965   */\n  mstore\n    /* \"#utility.yul\":1996:2000   */\n  0x20\n    /* \"#utility.yul\":1989:1994   */\n  dup2\n    /* \"#utility.yul\":1985:2001   */\n  add\n    /* \"#utility.yul\":2034:2037   */\n  dup5\n    /* \"#utility.yul\":2025:2031   */\n  dup5\n    /* \"#utility.yul\":2020:2023   */\n  dup5\n    /* \"#utility.yul\":2016:2032   */\n  add\n    /* \"#utility.yul\":2013:2038   */\n  gt\n    /* \"#utility.yul\":2010:2122   */\n  iszero\n  tag_64\n  jumpi\n    /* \"#utility.yul\":2041:2120   */\n  tag_65\n  tag_13\n  jump\t// in\ntag_65:\n    /* \"#utility.yul\":2010:2122   */\ntag_64:\n    /* \"#utility.yul\":2131:2183   */\n  tag_66\n    /* \"#utility.yul\":2176:2182   */\n  dup5\n    /* \"#utility.yul\":2171:2174   */\n  dup3\n    /* \"#utility.yul\":2166:2169   */\n  dup6\n    /* \"#utility.yul\":2131:2183   */\n  tag_19\n  jump\t// in\ntag_66:\n    /* \"#utility.yul\":1850:2189   */\n  pop\n    /* \"#utility.yul\":1755:2189   */\n  swap4\n  swap3\n  pop\n  pop\n  pop\n  jump\t// out\n    /* \"#utility.yul\":2209:2564   */\ntag_21:\n    /* \"#utility.yul\":2276:2281   */\n  0x00\n    /* \"#utility.yul\":2325:2328   */\n  dup3\n    /* \"#utility.yul\":2318:2322   */\n  0x1f\n    /* \"#utility.yul\":2310:2316   */\n  dup4\n    /* \"#utility.yul\":2306:2323   */\n  add\n    /* \"#utility.yul\":2302:2329   */\n  slt\n    /* \"#utility.yul\":2292:2414   */\n  tag_68\n  jumpi\n    /* \"#utility.yul\":2333:2412   */\n  tag_69\n  tag_12\n  jump\t// in\ntag_69:\n    /* \"#utility.yul\":2292:2414   */\ntag_68:\n    /* \"#utility.yul\":2443:2449   */\n  dup2\n    /* \"#utility.yul\":2437:2450   */\n  mload\n    /* \"#utility.yul\":2468:2558   */\n  tag_70\n    /* \"#utility.yul\":2554:2557   */\n  dup5\n    /* \"#utility.yul\":2546:2552   */\n  dup3\n    /* \"#utility.yul\":2539:2543   */\n  0x20\n    /* \"#utility.yul\":2531:2537   */\n  dup7\n    /* \"#utility.yul\":2527:2544   */\n  add\n    /* \"#utility.yul\":2468:2558   */\n  tag_20\n  jump\t// in\ntag_70:\n    /* \"#utility.yul\":2459:2558   */\n  swap2\n  pop\n    /* \"#utility.yul\":2282:2564   */\n  pop\n    /* \"#utility.yul\":2209:2564   */\n  swap3\n  swap2\n  pop\n  pop\n  jump\t// out\n    /* \"#utility.yul\":2570:3094   */\ntag_3:\n    /* \"#utility.yul\":2650:2656   */\n  0x00\n    /* \"#utility.yul\":2699:2701   */\n  0x20\n    /* \"#utility.yul\":2687:2696   */\n  dup3\n    /* \"#utility.yul\":2678:2685   */\n  dup5\n    /* \"#utility.yul\":2674:2697   */\n  sub\n    /* \"#utility.yul\":2670:2702   */\n  slt\n    /* \"#utility.yul\":2667:2786   */\n  iszero\n  tag_72\n  jumpi\n    /* \"#utility.yul\":2705:2784   */\n  tag_73\n  tag_10\n  jump\t// in\ntag_73:\n    /* \"#utility.yul\":2667:2786   */\ntag_72:\n    /* \"#utility.yul\":2846:2847   */\n  0x00\n    /* \"#utility.yul\":2835:2844   */\n  dup3\n    /* \"#utility.yul\":2831:2848   */\n  add\n    /* \"#utility.yul\":2825:2849   */\n  mload\n    /* \"#utility.yul\":2876:2894   */\n  0xffffffffffffffff\n    /* \"#utility.yul\":2868:2874   */\n  dup2\n    /* \"#utility.yul\":2865:2895   */\n  gt\n    /* \"#utility.yul\":2862:2979   */\n  iszero\n  tag_74\n  jumpi\n    /* \"#utility.yul\":2898:2977   */\n  tag_75\n  tag_11\n  jump\t// in\ntag_75:\n    /* \"#utility.yul\":2862:2979   */\ntag_74:\n    /* \"#utility.yul\":3003:3077   */\n  tag_76\n    /* \"#utility.yul\":3069:3076   */\n  dup5\n    /* \"#utility.yul\":3060:3066   */\n  dup3\n    /* \"#utility.yul\":3049:3058   */\n  dup6\n    /* \"#utility.yul\":3045:3067   */\n  add\n    /* \"#utility.yul\":3003:3077   */\n  tag_21\n  jump\t// in\ntag_76:\n    /* \"#utility.yul\":2993:3077   */\n  swap2\n  pop\n    /* \"#utility.yul\":2796:3087   */\n  pop\n    /* \"#utility.yul\":2570:3094   */\n  swap3\n  swap2\n  pop\n  pop\n  jump\t// out\n    /* \"#utility.yul\":3100:3199   */\ntag_22:\n    /* \"#utility.yul\":3152:3158   */\n  0x00\n    /* \"#utility.yul\":3186:3191   */\n  dup2\n    /* \"#utility.yul\":3180:3192   */\n  mload\n    /* \"#utility.yul\":3170:3192   */\n  swap1\n  pop\n    /* \"#utility.yul\":3100:3199   */\n  swap2\n  swap1\n  pop\n  jump\t// out\n    /* \"#utility.yul\":3205:3385   */\ntag_23:\n    /* \"#utility.yul\":3253:3330   */\n  0x4e487b7100000000000000000000000000000000000000000000000000000000\n    /* \"#utility.yul\":3250:3251   */\n  0x00\n    /* \"#utility.yul\":3243:3331   */\n  mstore\n    /* \"#utility.yul\":3350:3354   */\n  0x22\n    /* \"#utility.yul\":3347:3348   */\n  0x04\n    /* \"#utility.yul\":3340:3355   */\n  mstore\n    /* \"#utility.yul\":3374:3378   */\n  0x24\n    /* \"#utility.yul\":3371:3372   */\n  0x00\n    /* \"#utility.yul\":3364:3379   */\n  revert\n    /* \"#utility.yul\":3391:3711   */\ntag_24:\n    /* \"#utility.yul\":3435:3441   */\n  0x00\n    /* \"#utility.yul\":3472:3473   */\n  0x02\n    /* \"#utility.yul\":3466:3470   */\n  dup3\n    /* \"#utility.yul\":3462:3474   */\n  div\n    /* \"#utility.yul\":3452:3474   */\n  swap1\n  pop\n    /* \"#utility.yul\":3519:3520   */\n  0x01\n    /* \"#utility.yul\":3513:3517   */\n  dup3\n    /* \"#utility.yul\":3509:3521   */\n  and\n    /* \"#utility.yul\":3540:3558   */\n  dup1\n    /* \"#utility.yul\":3530:3611   */\n  tag_80\n  jumpi\n    /* \"#utility.yul\":3596:3600   */\n  0x7f\n    /* \"#utility.yul\":3588:3594   */\n  dup3\n    /* \"#utility.yul\":3584:3601   */\n  and\n    /* \"#utility.yul\":3574:3601   */\n  swap2\n  pop\n    /* \"#utility.yul\":3530:3611   */\ntag_80:\n    /* \"#utility.yul\":3658:3660   */\n  0x20\n    /* \"#utility.yul\":3650:3656   */\n  dup3\n    /* \"#utility.yul\":3647:3661   */\n  lt\n    /* \"#utility.yul\":3627:3645   */\n  dup2\n    /* \"#utility.yul\":3624:3662   */\n  sub\n    /* \"#utility.yul\":3621:3705   */\n  tag_81\n  jumpi\n    /* \"#utility.yul\":3677:3695   */\n  tag_82\n  tag_23\n  jump\t// in\ntag_82:\n    /* \"#utility.yul\":3621:3705   */\ntag_81:\n    /* \"#utility.yul\":3442:3711   */\n  pop\n    /* \"#utility.yul\":3391:3711   */\n  swap2\n  swap1\n  pop\n  jump\t// out\n    /* \"#utility.yul\":3717:3858   */\ntag_25:\n    /* \"#utility.yul\":3766:3770   */\n  0x00\n    /* \"#utility.yul\":3789:3792   */\n  dup2\n    /* \"#utility.yul\":3781:3792   */\n  swap1\n  pop\n    /* \"#utility.yul\":3812:3815   */\n  dup2\n    /* \"#utility.yul\":3809:3810   */\n  0x00\n    /* \"#utility.yul\":3802:3816   */\n  mstore\n    /* \"#utility.yul\":3846:3850   */\n  0x20\n    /* \"#utility.yul\":3843:3844   */\n  0x00\n    /* \"#utility.yul\":3833:3851   */\n  keccak256\n    /* \"#utility.yul\":3825:3851   */\n  swap1\n  pop\n    /* \"#utility.yul\":3717:3858   */\n  swap2\n  swap1\n  pop\n  jump\t// out\n    /* \"#utility.yul\":3864:3957   */\ntag_26:\n    /* \"#utility.yul\":3901:3907   */\n  0x00\n    /* \"#utility.yul\":3948:3950   */\n  0x20\n    /* \"#utility.yul\":3943:3945   */\n  0x1f\n    /* \"#utility.yul\":3936:3941   */\n  dup4\n    /* \"#utility.yul\":3932:3946   */\n  add\n    /* \"#utility.yul\":3928:3951   */\n  div\n    /* \"#utility.yul\":3918:3951   */\n  swap1\n  pop\n    /* \"#utility.yul\":3864:3957   */\n  swap2\n  swap1\n  pop\n  jump\t// out\n    /* \"#utility.yul\":3963:4070   */\ntag_27:\n    /* \"#utility.yul\":4007:4015   */\n  0x00\n    /* \"#utility.yul\":4057:4062   */\n  dup3\n    /* \"#utility.yul\":4051:4055   */\n  dup3\n    /* \"#utility.yul\":4047:4063   */\n  shl\n    /* \"#utility.yul\":4026:4063   */\n  swap1\n  pop\n    /* \"#utility.yul\":3963:4070   */\n  swap3\n  swap2\n  pop\n  pop\n  jump\t// out\n    /* \"#utility.yul\":4076:4469   */\ntag_28:\n    /* \"#utility.yul\":4145:4151   */\n  0x00\n    /* \"#utility.yul\":4195:4196   */\n  0x08\n    /* \"#utility.yul\":4183:4193   */\n  dup4\n    /* \"#utility.yul\":4179:4197   */\n  mul\n    /* \"#utility.yul\":4218:4315   */\n  tag_87\n    /* \"#utility.yul\":4248:4314   */\n  0xffffffffffffffffffffffffffffffffffffffffffffffffffffffffffffffff\n    /* \"#utility.yul\":4237:4246   */\n  dup3\n    /* \"#utility.yul\":4218:4315   */\n  tag_27\n  jump\t// in\ntag_87:\n    /* \"#utility.yul\":4336:4375   */\n  tag_88\n    /* \"#utility.yul\":4366:4374   */\n  dup7\n    /* \"#utility.yul\":4355:4364   */\n  dup4\n    /* \"#utility.yul\":4336:4375   */\n  tag_27\n  jump\t// in\ntag_88:\n    /* \"#utility.yul\":4324:4375   */\n  swap6\n  pop\n    /* \"#utility.yul\":4408:4412   */\n  dup1\n    /* \"#utility.yul\":4404:4413   */\n  not\n    /* \"#utility.yul\":4397:4402   */\n  dup5\n    /* \"#utility.yul\":4393:4414   */\n  and\n    /* \"#utility.yul\":4384:4414   */\n  swap4\n  pop\n    /* \"#utility.yul\":4457:4461   */\n  dup1\n    /* \"#utility.yul\":4447:4455   */\n  dup7\n    /* \"#utility.yul\":4443:4462   */\n  and\n    /* \"#utility.yul\":4436:4441   */\n  dup5\n    /* \"#utility.yul\":4433:4463   */\n  or\n    /* \"#utility.yul\":4423:4463   */\n  swap3\n  pop\n    /* \"#utility.yul\":4152:4469   */\n  pop\n  pop\n    /* \"#utility.yul\":4076:4469   */\n  swap4\n  swap3\n  pop\n  pop\n  pop\n  jump\t// out\n    /* \"#utility.yul\":4475:4552   */\ntag_29:\n    /* \"#utility.yul\":4512:4519   */\n  0x00\n    /* \"#utility.yul\":4541:4546   */\n  dup2\n    /* \"#utility.yul\":4530:4546   */\n  swap1\n  pop\n    /* \"#utility.yul\":4475:4552   */\n  swap2\n  swap1\n  pop\n  jump\t// out\n    /* \"#utility.yul\":4558:4618   */\ntag_30:\n    /* \"#utility.yul\":4586:4589   */\n  0x00\n    /* \"#utility.yul\":4607:4612   */\n  dup2\n    /* \"#utility.yul\":4600:4612   */\n  swap1\n  pop\n    /* \"#utility.yul\":4558:4618   */\n  swap2\n  swap1\n  pop\n  jump\t// out\n    /* \"#utility.yul\":4624:4766   */\ntag_31:\n    /* \"#utility.yul\":4674:4683   */\n  0x00\n    /* \"#utility.yul\":4707:4760   */\n  tag_92\n    /* \"#utility.yul\":4725:4759   */\n  tag_93\n    /* \"#utility.yul\":4734:4758   */\n  tag_94\n    /* \"#utility.yul\":4752:4757   */\n  dup5\n    /* \"#utility.yul\":4734:4758   */\n  tag_29\n  jump\t// in\ntag_94:\n    /* \"#utility.yul\":4725:4759   */\n  tag_30\n  jump\t// in\ntag_93:\n    /* \"#utility.yul\":4707:4760   */\n  tag_29\n  jump\t// in\ntag_92:\n    /* \"#utility.yul\":4694:4760   */\n  swap1\n  pop\n    /* \"#utility.yul\":4624:4766   */\n  swap2\n  swap1\n  pop\n  jump\t// out\n    /* \"#utility.yul\":4772:4847   */\ntag_32:\n    /* \"#utility.yul\":4815:4818   */\n  0x00\n    /* \"#utility.yul\":4836:4841   */\n  dup2\n    /* \"#utility.yul\":4829:4841   */\n  swap1\n  pop\n    /* \"#utility.yul\":4772:4847   */\n  swap2\n  swap1\n  pop\n  jump\t// out\n    /* \"#utility.yul\":4853:5122   */\ntag_33:\n    /* \"#utility.yul\":4963:5002   */\n  tag_97\n    /* \"#utility.yul\":4994:5001   */\n  dup4\n    /* \"#utility.yul\":4963:5002   */\n  tag_31\n  jump\t// in\ntag_97:\n    /* \"#utility.yul\":5024:5115   */\n  tag_98\n    /* \"#utility.yul\":5073:5114   */\n  tag_99\n    /* \"#utility.yul\":5097:5113   */\n  dup3\n    /* \"#utility.yul\":5073:5114   */\n  tag_32\n  jump\t// in\ntag_99:\n    /* \"#utility.yul\":5065:5071   */\n  dup5\n    /* \"#utility.yul\":5058:5062   */\n  dup5\n    /* \"#utility.yul\":5052:5063   */\n  sload\n    /* \"#utility.yul\":5024:5115   */\n  tag_28\n  jump\t// in\ntag_98:\n    /* \"#utility.yul\":5018:5022   */\n  dup3\n    /* \"#utility.yul\":5011:5116   */\n  sstore\n    /* \"#utility.yul\":4929:5122   */\n  pop\n    /* \"#utility.yul\":4853:5122   */\n  pop\n  pop\n  pop\n  jump\t// out\n    /* \"#utility.yul\":5128:5201   */\ntag_34:\n    /* \"#utility.yul\":5173:5176   */\n  0x00\n    /* \"#utility.yul\":5194:5195   */\n  0x00\n    /* \"#utility.yul\":5187:5195   */\n  swap1\n  pop\n    /* \"#utility.yul\":5128:5201   */\n  swap1\n  jump\t// out\n    /* \"#utility.yul\":5207:5396   */\ntag_35:\n    /* \"#utility.yul\":5284:5316   */\n  tag_102\n  tag_34\n  jump\t// in\ntag_102:\n    /* \"#utility.yul\":5325:5390   */\n  tag_103\n    /* \"#utility.yul\":5383:5389   */\n  dup2\n    /* \"#utility.yul\":5375:5381   */\n  dup5\n    /* \"#utility.yul\":5369:5373   */\n  dup5\n    /* \"#utility.yul\":5325:5390   */\n  tag_33\n  jump\t// in\ntag_103:\n    /* \"#utility.yul\":5260:5396   */\n  pop\n    /* \"#utility.yul\":5207:5396   */\n  pop\n  pop\n  jump\t// out\n    /* \"#utility.yul\":5402:5588   */\ntag_36:\n    /* \"#utility.yul\":5462:5582   */\ntag_105:\n    /* \"#utility.yul\":5479:5482   */\n  dup2\n    /* \"#utility.yul\":5472:5477   */\n  dup2\n    /* \"#utility.yul\":5469:5483   */\n  lt\n    /* \"#utility.yul\":5462:5582   */\n  iszero\n  tag_107\n  jumpi\n    /* \"#utility.yul\":5533:5572   */\n  tag_108\n    /* \"#utility.yul\":5570:5571   */\n  0x00\n    /* \"#utility.yul\":5563:5568   */\n  dup3\n    /* \"#utility.yul\":5533:5572   */\n  tag_35\n  jump\t// in\ntag_108:\n    /* \"#utility.yul\":5506:5507   */\n  0x01\n    /* \"#utility.yul\":5499:5504   */\n  dup2\n    /* \"#utility.yul\":5495:5508   */\n  add\n    /* \"#utility.yul\":5486:5508   */\n  swap1\n  pop\n    /* \"#utility.yul\":5462:5582   */\n  jump(tag_105)\ntag_107:\n    /* \"#utility.yul\":5402:5588   */\n  pop\n  pop\n  jump\t// out\n    /* \"#utility.yul\":5594:6137   */\ntag_37:\n    /* \"#utility.yul\":5695:5697   */\n  0x1f\n    /* \"#utility.yul\":5690:5693   */\n  dup3\n    /* \"#utility.yul\":5687:5698   */\n  gt\n    /* \"#utility.yul\":5684:6130   */\n  iszero\n  tag_110\n  jumpi\n    /* \"#utility.yul\":5729:5767   */\n  tag_111\n    /* \"#utility.yul\":5761:5766   */\n  dup2\n    /* \"#utility.yul\":5729:5767   */\n  tag_25\n  jump\t// in\ntag_111:\n    /* \"#utility.yul\":5813:5842   */\n  tag_112\n    /* \"#utility.yul\":5831:5841   */\n  dup5\n    /* \"#utility.yul\":5813:5842   */\n  tag_26\n  jump\t// in\ntag_112:\n    /* \"#utility.yul\":5803:5811   */\n  dup2\n    /* \"#utility.yul\":5799:5843   */\n  add\n    /* \"#utility.yul\":5996:5998   */\n  0x20\n    /* \"#utility.yul\":5984:5994   */\n  dup6\n    /* \"#utility.yul\":5981:5999   */\n  lt\n    /* \"#utility.yul\":5978:6027   */\n  iszero\n  tag_113\n  jumpi\n    /* \"#utility.yul\":6017:6025   */\n  dup2\n    /* \"#utility.yul\":6002:6025   */\n  swap1\n  pop\n    /* \"#utility.yul\":5978:6027   */\ntag_113:\n    /* \"#utility.yul\":6040:6120   */\n  tag_114\n    /* \"#utility.yul\":6096:6118   */\n  tag_115\n    /* \"#utility.yul\":6114:6117   */\n  dup6\n    /* \"#utility.yul\":6096:6118   */\n  tag_26\n  jump\t// in\ntag_115:\n    /* \"#utility.yul\":6086:6094   */\n  dup4\n    /* \"#utility.yul\":6082:6119   */\n  add\n    /* \"#utility.yul\":6069:6080   */\n  dup3\n    /* \"#utility.yul\":6040:6120   */\n  tag_36\n  jump\t// in\ntag_114:\n    /* \"#utility.yul\":5699:6130   */\n  pop\n  pop\n    /* \"#utility.yul\":5684:6130   */\ntag_110:\n    /* \"#utility.yul\":5594:6137   */\n  pop\n  pop\n  pop\n  jump\t// out\n    /* \"#utility.yul\":6143:6260   */\ntag_38:\n    /* \"#utility.yul\":6197:6205   */\n  0x00\n    /* \"#utility.yul\":6247:6252   */\n  dup3\n    /* \"#utility.yul\":6241:6245   */\n  dup3\n    /* \"#utility.yul\":6237:6253   */\n  shr\n    /* \"#utility.yul\":6216:6253   */\n  swap1\n  pop\n    /* \"#utility.yul\":6143:6260   */\n  swap3\n  swap2\n  pop\n  pop\n  jump\t// out\n    /* \"#utility.yul\":6266:6435   */\ntag_39:\n    /* \"#utility.yul\":6310:6316   */\n  0x00\n    /* \"#utility.yul\":6343:6394   */\n  tag_118\n    /* \"#utility.yul\":6391:6392   */\n  0x00\n    /* \"#utility.yul\":6387:6393   */\n  not\n    /* \"#utility.yul\":6379:6384   */\n  dup5\n    /* \"#utility.yul\":6376:6377   */\n  0x08\n    /* \"#utility.yul\":6372:6385   */\n  mul\n    /* \"#utility.yul\":6343:6394   */\n  tag_38\n  jump\t// in\ntag_118:\n    /* \"#utility.yul\":6339:6395   */\n  not\n    /* \"#utility.yul\":6424:6428   */\n  dup1\n    /* \"#utility.yul\":6418:6422   */\n  dup4\n    /* \"#utility.yul\":6414:6429   */\n  and\n    /* \"#utility.yul\":6404:6429   */\n  swap2\n  pop\n    /* \"#utility.yul\":6317:6435   */\n  pop\n    /* \"#utility.yul\":6266:6435   */\n  swap3\n  swap2\n  pop\n  pop\n  jump\t// out\n    /* \"#utility.yul\":6440:6735   */\ntag_40:\n    /* \"#utility.yul\":6516:6520   */\n  0x00\n    /* \"#utility.yul\":6662:6691   */\n  tag_120\n    /* \"#utility.yul\":6687:6690   */\n  dup4\n    /* \"#utility.yul\":6681:6685   */\n  dup4\n    /* \"#utility.yul\":6662:6691   */\n  tag_39\n  jump\t// in\ntag_120:\n    /* \"#utility.yul\":6654:6691   */\n  swap2\n  pop\n    /* \"#utility.yul\":6724:6727   */\n  dup3\n    /* \"#utility.yul\":6721:6722   */\n  0x02\n    /* \"#utility.yul\":6717:6728   */\n  mul\n    /* \"#utility.yul\":6711:6715   */\n  dup3\n    /* \"#utility.yul\":6708:6729   */\n  or\n    /* \"#utility.yul\":6700:6729   */\n  swap1\n  pop\n    /* \"#utility.yul\":6440:6735   */\n  swap3\n  swap2\n  pop\n  pop\n  jump\t// out\n    /* \"#utility.yul\":6740:8135   */\ntag_7:\n    /* \"#utility.yul\":6857:6894   */\n  tag_122\n    /* \"#utility.yul\":6890:6893   */\n  dup3\n    /* \"#utility.yul\":6857:6894   */\n  tag_22\n  jump\t// in\ntag_122:\n    /* \"#utility.yul\":6959:6977   */\n  0xffffffffffffffff\n    /* \"#utility.yul\":6951:6957   */\n  dup2\n    /* \"#utility.yul\":6948:6978   */\n  gt\n    /* \"#utility.yul\":6945:7001   */\n  iszero\n  tag_123\n  jumpi\n    /* \"#utility.yul\":6981:6999   */\n  tag_124\n  tag_15\n  jump\t// in\ntag_124:\n    /* \"#utility.yul\":6945:7001   */\ntag_123:\n    /* \"#utility.yul\":7025:7063   */\n  tag_125\n    /* \"#utility.yul\":7057:7061   */\n  dup3\n    /* \"#utility.yul\":7051:7062   */\n  sload\n    /* \"#utility.yul\":7025:7063   */\n  tag_24\n  jump\t// in\ntag_125:\n    /* \"#utility.yul\":7110:7177   */\n  tag_126\n    /* \"#utility.yul\":7170:7176   */\n  dup3\n    /* \"#utility.yul\":7162:7168   */\n  dup3\n    /* \"#utility.yul\":7156:7160   */\n  dup6\n    /* \"#utility.yul\":7110:7177   */\n  tag_37\n  jump\t// in\ntag_126:\n    /* \"#utility.yul\":7204:7205   */\n  0x00\n    /* \"#utility.yul\":7228:7232   */\n  0x20\n    /* \"#utility.yul\":7215:7232   */\n  swap1\n  pop\n    /* \"#utility.yul\":7260:7262   */\n  0x1f\n    /* \"#utility.yul\":7252:7258   */\n  dup4\n    /* \"#utility.yul\":7249:7263   */\n  gt\n    /* \"#utility.yul\":7277:7278   */\n  0x01\n    /* \"#utility.yul\":7272:7890   */\n  dup2\n  eq\n  tag_128\n  jumpi\n    /* \"#utility.yul\":7934:7935   */\n  0x00\n    /* \"#utility.yul\":7951:7957   */\n  dup5\n    /* \"#utility.yul\":7948:8025   */\n  iszero\n  tag_129\n  jumpi\n    /* \"#utility.yul\":8000:8009   */\n  dup3\n    /* \"#utility.yul\":7995:7998   */\n  dup8\n    /* \"#utility.yul\":7991:8010   */\n  add\n    /* \"#utility.yul\":7985:8011   */\n  mload\n    /* \"#utility.yul\":7976:8011   */\n  swap1\n  pop\n    /* \"#utility.yul\":7948:8025   */\ntag_129:\n    /* \"#utility.yul\":8051:8118   */\n  tag_130\n    /* \"#utility.yul\":8111:8117   */\n  dup6\n    /* \"#utility.yul\":8104:8109   */\n  dup3\n    /* \"#utility.yul\":8051:8118   */\n  tag_40\n  jump\t// in\ntag_130:\n    /* \"#utility.yul\":8045:8049   */\n  dup7\n    /* \"#utility.yul\":8038:8119   */\n  sstore\n    /* \"#utility.yul\":7907:8129   */\n  pop\n    /* \"#utility.yul\":7242:8129   */\n  jump(tag_127)\n    /* \"#utility.yul\":7272:7890   */\ntag_128:\n    /* \"#utility.yul\":7324:7328   */\n  0x1f\n    /* \"#utility.yul\":7320:7329   */\n  not\n    /* \"#utility.yul\":7312:7318   */\n  dup5\n    /* \"#utility.yul\":7308:7330   */\n  and\n    /* \"#utility.yul\":7358:7395   */\n  tag_131\n    /* \"#utility.yul\":7390:7394   */\n  dup7\n    /* \"#utility.yul\":7358:7395   */\n  tag_25\n  jump\t// in\ntag_131:\n    /* \"#utility.yul\":7417:7418   */\n  0x00\n    /* \"#utility.yul\":7431:7639   */\ntag_132:\n    /* \"#utility.yul\":7445:7452   */\n  dup3\n    /* \"#utility.yul\":7442:7443   */\n  dup2\n    /* \"#utility.yul\":7439:7453   */\n  lt\n    /* \"#utility.yul\":7431:7639   */\n  iszero\n  tag_134\n  jumpi\n    /* \"#utility.yul\":7524:7533   */\n  dup5\n    /* \"#utility.yul\":7519:7522   */\n  dup10\n    /* \"#utility.yul\":7515:7534   */\n  add\n    /* \"#utility.yul\":7509:7535   */\n  mload\n    /* \"#utility.yul\":7501:7507   */\n  dup3\n    /* \"#utility.yul\":7494:7536   */\n  sstore\n    /* \"#utility.yul\":7575:7576   */\n  0x01\n    /* \"#utility.yul\":7567:7573   */\n  dup3\n    /* \"#utility.yul\":7563:7577   */\n  add\n    /* \"#utility.yul\":7553:7577   */\n  swap2\n  pop\n    /* \"#utility.yul\":7622:7624   */\n  0x20\n    /* \"#utility.yul\":7611:7620   */\n  dup6\n    /* \"#utility.yul\":7607:7625   */\n  add\n    /* \"#utility.yul\":7594:7625   */\n  swap5\n  pop\n    /* \"#utility.yul\":7468:7472   */\n  0x20\n    /* \"#utility.yul\":7465:7466   */\n  dup2\n    /* \"#utility.yul\":7461:7473   */\n  add\n    /* \"#utility.yul\":7456:7473   */\n  swap1\n  pop\n    /* \"#utility.yul\":7431:7639   */\n  jump(tag_132)\ntag_134:\n    /* \"#utility.yul\":7667:7673   */\n  dup7\n    /* \"#utility.yul\":7658:7665   */\n  dup4\n    /* \"#utility.yul\":7655:7674   */\n  lt\n    /* \"#utility.yul\":7652:7831   */\n  iszero\n  tag_135\n  jumpi\n    /* \"#utility.yul\":7725:7734   */\n  dup5\n    /* \"#utility.yul\":7720:7723   */\n  dup10\n    /* \"#utility.yul\":7716:7735   */\n  add\n    /* \"#utility.yul\":7710:7736   */\n  mload\n    /* \"#utility.yul\":7768:7816   */\n  tag_136\n    /* \"#utility.yul\":7810:7814   */\n  0x1f\n    /* \"#utility.yul\":7802:7808   */\n  dup10\n    /* \"#utility.yul\":7798:7815   */\n  and\n    /* \"#utility.yul\":7787:7796   */\n  dup3\n    /* \"#utility.yul\":7768:7816   */\n  tag_39\n  jump\t// in\ntag_136:\n    /* \"#utility.yul\":7760:7766   */\n  dup4\n    /* \"#utility.yul\":7753:7817   */\n  sstore\n    /* \"#utility.yul\":7675:7831   */\n  pop\n    /* \"#utility.yul\":7652:7831   */\ntag_135:\n    /* \"#utility.yul\":7877:7878   */\n  0x01\n    /* \"#utility.yul\":7873:7874   */\n  0x02\n    /* \"#utility.yul\":7865:7871   */\n  dup9\n    /* \"#utility.yul\":7861:7875   */\n  mul\n    /* \"#utility.yul\":7857:7879   */\n  add\n    /* \"#utility.yul\":7851:7855   */\n  dup9\n    /* \"#utility.yul\":7844:7880   */\n  sstore\n    /* \"#utility.yul\":7279:7890   */\n  pop\n  pop\n  pop\n    /* \"#utility.yul\":7242:8129   */\ntag_127:\n  pop\n    /* \"#utility.yul\":6832:8135   */\n  pop\n  pop\n  pop\n    /* \"#utility.yul\":6740:8135   */\n  pop\n  pop\n  jump\t// out\n    /* \"contracts/Day2.sol\":62:751  contract Session02 {... */\ntag_8:\n  dataSize(sub_0)\n  dup1\n  dataOffset(sub_0)\n  0x00\n  codecopy\n  0x00\n  return\nstop\n\nsub_0: assembly {\n        /* \"contracts/Day2.sol\":62:751  contract Session02 {... */\n      mstore(0x40, 0x80)\n      callvalue\n      dup1\n      iszero\n      tag_1\n      jumpi\n      revert(0x00, 0x00)\n    tag_1:\n      pop\n      jumpi(tag_2, lt(calldatasize, 0x04))\n      shr(0xe0, calldataload(0x00))\n      dup1\n      0x0400c2e7\n      eq\n      tag_3\n      jumpi\n      dup1\n      0x2a2db175\n      eq\n      tag_4\n      jumpi\n      dup1\n      0xb59ba1cf\n      eq\n      tag_5\n      jumpi\n    tag_2:\n      revert(0x00, 0x00)\n        /* \"contracts/Day2.sol\":407:587  function count(int _number) public pure returns (int){... */\n    tag_3:\n      tag_6\n      0x04\n      dup1\n      calldatasize\n      sub\n      dup2\n      add\n      swap1\n      tag_7\n      swap2\n      swap1\n      tag_8\n      jump\t// in\n    tag_7:\n      tag_9\n      jump\t// in\n    tag_6:\n      mload(0x40)\n      tag_10\n      swap2\n      swap1\n      tag_11\n      jump\t// in\n    tag_10:\n      mload(0x40)\n      dup1\n      swap2\n      sub\n      swap1\n      return\n        /* \"contracts/Day2.sol\":593:749  function countAgain(int _num) public pure returns (int) {... */\n    tag_4:\n      tag_12\n      0x04\n      dup1\n      calldatasize\n      sub\n      dup2\n      add\n      swap1\n      tag_13\n      swap2\n      swap1\n      tag_8\n      jump\t// in\n    tag_13:\n      tag_14\n      jump\t// in\n    tag_12:\n      mload(0x40)\n      tag_15\n      swap2\n      swap1\n      tag_11\n      jump\t// in\n    tag_15:\n      mload(0x40)\n      dup1\n      swap2\n      sub\n      swap1\n      return\n        /* \"contracts/Day2.sol\":185:402  function checkMessage(int _number) public view returns (string memory) {... */\n    tag_5:\n      tag_16\n      0x04\n      dup1\n      calldatasize\n      sub\n      dup2\n      add\n      swap1\n      tag_17\n      swap2\n      swap1\n      tag_8\n      jump\t// in\n    tag_17:\n      tag_18\n      jump\t// in\n    tag_16:\n      mload(0x40)\n      tag_19\n      swap2\n      swap1\n      tag_20\n      jump\t// in\n    tag_19:\n      mload(0x40)\n      dup1\n      swap2\n      sub\n      swap1\n      return\n        /* \"contracts/Day2.sol\":407:587  function count(int _number) public pure returns (int){... */\n    tag_9:\n        /* \"contracts/Day2.sol\":456:459  int */\n      0x00\n        /* \"contracts/Day2.sol\":470:475  int i */\n      0x00\n        /* \"contracts/Day2.sol\":478:479  0 */\n      0x00\n        /* \"contracts/Day2.sol\":470:479  int i = 0 */\n      swap1\n      pop\n        /* \"contracts/Day2.sol\":489:555  while (i < 10 ){... */\n    tag_22:\n        /* \"contracts/Day2.sol\":500:502  10 */\n      0x0a\n        /* \"contracts/Day2.sol\":496:497  i */\n      dup2\n        /* \"contracts/Day2.sol\":496:502  i < 10 */\n      slt\n        /* \"contracts/Day2.sol\":489:555  while (i < 10 ){... */\n      iszero\n      tag_23\n      jumpi\n        /* \"contracts/Day2.sol\":518:527  _number++ */\n      dup3\n      dup1\n      tag_24\n      swap1\n      tag_25\n      jump\t// in\n    tag_24:\n      swap4\n      pop\n      pop\n        /* \"contracts/Day2.sol\":541:544  i++ */\n      dup1\n      dup1\n      tag_26\n      swap1\n      tag_25\n      jump\t// in\n    tag_26:\n      swap2\n      pop\n      pop\n        /* \"contracts/Day2.sol\":489:555  while (i < 10 ){... */\n      jump(tag_22)\n    tag_23:\n        /* \"contracts/Day2.sol\":572:579  _number */\n      dup3\n        /* \"contracts/Day2.sol\":564:580  return (_number) */\n      swap2\n      pop\n      pop\n        /* \"contracts/Day2.sol\":407:587  function count(int _number) public pure returns (int){... */\n      swap2\n      swap1\n      pop\n      jump\t// out\n        /* \"contracts/Day2.sol\":593:749  function countAgain(int _num) public pure returns (int) {... */\n    tag_14:\n        /* \"contracts/Day2.sol\":644:647  int */\n      0x00\n        /* \"contracts/Day2.sol\":665:670  int i */\n      0x00\n        /* \"contracts/Day2.sol\":671:672  0 */\n      0x00\n        /* \"contracts/Day2.sol\":665:672  int i=0 */\n      swap1\n      pop\n        /* \"contracts/Day2.sol\":660:720  for (int i=0; i < 10 ; i++ ) {... */\n    tag_28:\n        /* \"contracts/Day2.sol\":678:680  10 */\n      0x0a\n        /* \"contracts/Day2.sol\":674:675  i */\n      dup2\n        /* \"contracts/Day2.sol\":674:680  i < 10 */\n      slt\n        /* \"contracts/Day2.sol\":660:720  for (int i=0; i < 10 ; i++ ) {... */\n      iszero\n      tag_29\n      jumpi\n        /* \"contracts/Day2.sol\":703:709  _num++ */\n      dup3\n      dup1\n      tag_31\n      swap1\n      tag_25\n      jump\t// in\n    tag_31:\n      swap4\n      pop\n      pop\n        /* \"contracts/Day2.sol\":683:686  i++ */\n      dup1\n      dup1\n      0x01\n      add\n      swap2\n      pop\n      pop\n        /* \"contracts/Day2.sol\":660:720  for (int i=0; i < 10 ; i++ ) {... */\n      jump(tag_28)\n    tag_29:\n      pop\n        /* \"contracts/Day2.sol\":737:741  _num */\n      dup2\n        /* \"contracts/Day2.sol\":729:742  return (_num) */\n      swap1\n      pop\n        /* \"contracts/Day2.sol\":593:749  function countAgain(int _num) public pure returns (int) {... */\n      swap2\n      swap1\n      pop\n      jump\t// out\n        /* \"contracts/Day2.sol\":185:402  function checkMessage(int _number) public view returns (string memory) {... */\n    tag_18:\n        /* \"contracts/Day2.sol\":241:254  string memory */\n      0x60\n        /* \"contracts/Day2.sol\":300:304  1234 */\n      0x04d2\n        /* \"contracts/Day2.sol\":289:296  _number */\n      dup3\n        /* \"contracts/Day2.sol\":289:304  _number == 1234 */\n      sub\n        /* \"contracts/Day2.sol\":285:396  if (_number == 1234) {... */\n      tag_33\n      jumpi\n        /* \"contracts/Day2.sol\":327:334  message */\n      0x00\n        /* \"contracts/Day2.sol\":320:334  return message */\n      dup1\n      sload\n      tag_34\n      swap1\n      tag_35\n      jump\t// in\n    tag_34:\n      dup1\n      0x1f\n      add\n      0x20\n      dup1\n      swap2\n      div\n      mul\n      0x20\n      add\n      mload(0x40)\n      swap1\n      dup2\n      add\n      0x40\n      mstore\n      dup1\n      swap3\n      swap2\n      swap1\n      dup2\n      dup2\n      mstore\n      0x20\n      add\n      dup3\n      dup1\n      sload\n      tag_36\n      swap1\n      tag_35\n      jump\t// in\n    tag_36:\n      dup1\n      iszero\n      tag_37\n      jumpi\n      dup1\n      0x1f\n      lt\n      tag_38\n      jumpi\n      0x0100\n      dup1\n      dup4\n      sload\n      div\n      mul\n      dup4\n      mstore\n      swap2\n      0x20\n      add\n      swap2\n      jump(tag_37)\n    tag_38:\n      dup3\n      add\n      swap2\n      swap1\n      0x00\n      mstore\n      keccak256(0x00, 0x20)\n      swap1\n    tag_39:\n      dup2\n      sload\n      dup2\n      mstore\n      swap1\n      0x01\n      add\n      swap1\n      0x20\n      add\n      dup1\n      dup4\n      gt\n      tag_39\n      jumpi\n      dup3\n      swap1\n      sub\n      0x1f\n      and\n      dup3\n      add\n      swap2\n    tag_37:\n      pop\n      pop\n      pop\n      pop\n      pop\n      swap1\n      pop\n      jump(tag_32)\n        /* \"contracts/Day2.sol\":285:396  if (_number == 1234) {... */\n    tag_33:\n        /* \"contracts/Day2.sol\":364:384  return \"Not allowed\" */\n      mload(0x40)\n      dup1\n      0x40\n      add\n      0x40\n      mstore\n      dup1\n      0x0b\n      dup2\n      mstore\n      0x20\n      add\n      0x4e6f7420616c6c6f776564000000000000000000000000000000000000000000\n      dup2\n      mstore\n      pop\n      swap1\n      pop\n        /* \"contracts/Day2.sol\":185:402  function checkMessage(int _number) public view returns (string memory) {... */\n    tag_32:\n      swap2\n      swap1\n      pop\n      jump\t// out\n        /* \"#utility.yul\":88:205   */\n    tag_42:\n        /* \"#utility.yul\":197:198   */\n      0x00\n        /* \"#utility.yul\":194:195   */\n      0x00\n        /* \"#utility.yul\":187:199   */\n      revert\n        /* \"#utility.yul\":334:410   */\n    tag_44:\n        /* \"#utility.yul\":370:377   */\n      0x00\n        /* \"#utility.yul\":399:404   */\n      dup2\n        /* \"#utility.yul\":388:404   */\n      swap1\n      pop\n        /* \"#utility.yul\":334:410   */\n      swap2\n      swap1\n      pop\n      jump\t// out\n        /* \"#utility.yul\":416:536   */\n    tag_45:\n        /* \"#utility.yul\":488:511   */\n      tag_61\n        /* \"#utility.yul\":505:510   */\n      dup2\n        /* \"#utility.yul\":488:511   */\n      tag_44\n      jump\t// in\n    tag_61:\n        /* \"#utility.yul\":481:486   */\n      dup2\n        /* \"#utility.yul\":478:512   */\n      eq\n        /* \"#utility.yul\":468:530   */\n      tag_62\n      jumpi\n        /* \"#utility.yul\":526:527   */\n      0x00\n        /* \"#utility.yul\":523:524   */\n      0x00\n        /* \"#utility.yul\":516:528   */\n      revert\n        /* \"#utility.yul\":468:530   */\n    tag_62:\n        /* \"#utility.yul\":416:536   */\n      pop\n      jump\t// out\n        /* \"#utility.yul\":542:679   */\n    tag_46:\n        /* \"#utility.yul\":587:592   */\n      0x00\n        /* \"#utility.yul\":625:631   */\n      dup2\n        /* \"#utility.yul\":612:632   */\n      calldataload\n        /* \"#utility.yul\":603:632   */\n      swap1\n      pop\n        /* \"#utility.yul\":641:673   */\n      tag_64\n        /* \"#utility.yul\":667:672   */\n      dup2\n        /* \"#utility.yul\":641:673   */\n      tag_45\n      jump\t// in\n    tag_64:\n        /* \"#utility.yul\":542:679   */\n      swap3\n      swap2\n      pop\n      pop\n      jump\t// out\n        /* \"#utility.yul\":685:1012   */\n    tag_8:\n        /* \"#utility.yul\":743:749   */\n      0x00\n        /* \"#utility.yul\":792:794   */\n      0x20\n        /* \"#utility.yul\":780:789   */\n      dup3\n        /* \"#utility.yul\":771:778   */\n      dup5\n        /* \"#utility.yul\":767:790   */\n      sub\n        /* \"#utility.yul\":763:795   */\n      slt\n        /* \"#utility.yul\":760:879   */\n      iszero\n      tag_66\n      jumpi\n        /* \"#utility.yul\":798:877   */\n      tag_67\n      tag_42\n      jump\t// in\n    tag_67:\n        /* \"#utility.yul\":760:879   */\n    tag_66:\n        /* \"#utility.yul\":918:919   */\n      0x00\n        /* \"#utility.yul\":943:995   */\n      tag_68\n        /* \"#utility.yul\":987:994   */\n      dup5\n        /* \"#utility.yul\":978:984   */\n      dup3\n        /* \"#utility.yul\":967:976   */\n      dup6\n        /* \"#utility.yul\":963:985   */\n      add\n        /* \"#utility.yul\":943:995   */\n      tag_46\n      jump\t// in\n    tag_68:\n        /* \"#utility.yul\":933:995   */\n      swap2\n      pop\n        /* \"#utility.yul\":889:1005   */\n      pop\n        /* \"#utility.yul\":685:1012   */\n      swap3\n      swap2\n      pop\n      pop\n      jump\t// out\n        /* \"#utility.yul\":1018:1133   */\n    tag_47:\n        /* \"#utility.yul\":1103:1126   */\n      tag_70\n        /* \"#utility.yul\":1120:1125   */\n      dup2\n        /* \"#utility.yul\":1103:1126   */\n      tag_44\n      jump\t// in\n    tag_70:\n        /* \"#utility.yul\":1098:1101   */\n      dup3\n        /* \"#utility.yul\":1091:1127   */\n      mstore\n        /* \"#utility.yul\":1018:1133   */\n      pop\n      pop\n      jump\t// out\n        /* \"#utility.yul\":1139:1357   */\n    tag_11:\n        /* \"#utility.yul\":1230:1234   */\n      0x00\n        /* \"#utility.yul\":1268:1270   */\n      0x20\n        /* \"#utility.yul\":1257:1266   */\n      dup3\n        /* \"#utility.yul\":1253:1271   */\n      add\n        /* \"#utility.yul\":1245:1271   */\n      swap1\n      pop\n        /* \"#utility.yul\":1281:1350   */\n      tag_72\n        /* \"#utility.yul\":1347:1348   */\n      0x00\n        /* \"#utility.yul\":1336:1345   */\n      dup4\n        /* \"#utility.yul\":1332:1349   */\n      add\n        /* \"#utility.yul\":1323:1329   */\n      dup5\n        /* \"#utility.yul\":1281:1350   */\n      tag_47\n      jump\t// in\n    tag_72:\n        /* \"#utility.yul\":1139:1357   */\n      swap3\n      swap2\n      pop\n      pop\n      jump\t// out\n        /* \"#utility.yul\":1363:1462   */\n    tag_48:\n        /* \"#utility.yul\":1415:1421   */\n      0x00\n        /* \"#utility.yul\":1449:1454   */\n      dup2\n        /* \"#utility.yul\":1443:1455   */\n      mload\n        /* \"#utility.yul\":1433:1455   */\n      swap1\n      pop\n        /* \"#utility.yul\":1363:1462   */\n      swap2\n      swap1\n      pop\n      jump\t// out\n        /* \"#utility.yul\":1468:1637   */\n    tag_49:\n        /* \"#utility.yul\":1552:1563   */\n      0x00\n        /* \"#utility.yul\":1586:1592   */\n      dup3\n        /* \"#utility.yul\":1581:1584   */\n      dup3\n        /* \"#utility.yul\":1574:1593   */\n      mstore\n        /* \"#utility.yul\":1626:1630   */\n      0x20\n        /* \"#utility.yul\":1621:1624   */\n      dup3\n        /* \"#utility.yul\":1617:1631   */\n      add\n        /* \"#utility.yul\":1602:1631   */\n      swap1\n      pop\n        /* \"#utility.yul\":1468:1637   */\n      swap3\n      swap2\n      pop\n      pop\n      jump\t// out\n        /* \"#utility.yul\":1643:1782   */\n    tag_50:\n        /* \"#utility.yul\":1732:1738   */\n      dup3\n        /* \"#utility.yul\":1727:1730   */\n      dup2\n        /* \"#utility.yul\":1722:1725   */\n      dup4\n        /* \"#utility.yul\":1716:1739   */\n      mcopy\n        /* \"#utility.yul\":1773:1774   */\n      0x00\n        /* \"#utility.yul\":1764:1770   */\n      dup4\n        /* \"#utility.yul\":1759:1762   */\n      dup4\n        /* \"#utility.yul\":1755:1771   */\n      add\n        /* \"#utility.yul\":1748:1775   */\n      mstore\n        /* \"#utility.yul\":1643:1782   */\n      pop\n      pop\n      pop\n      jump\t// out\n        /* \"#utility.yul\":1788:1890   */\n    tag_51:\n        /* \"#utility.yul\":1829:1835   */\n      0x00\n        /* \"#utility.yul\":1880:1882   */\n      0x1f\n        /* \"#utility.yul\":1876:1883   */\n      not\n        /* \"#utility.yul\":1871:1873   */\n      0x1f\n        /* \"#utility.yul\":1864:1869   */\n      dup4\n        /* \"#utility.yul\":1860:1874   */\n      add\n        /* \"#utility.yul\":1856:1884   */\n      and\n        /* \"#utility.yul\":1846:1884   */\n      swap1\n      pop\n        /* \"#utility.yul\":1788:1890   */\n      swap2\n      swap1\n      pop\n      jump\t// out\n        /* \"#utility.yul\":1896:2273   */\n    tag_52:\n        /* \"#utility.yul\":1984:1987   */\n      0x00\n        /* \"#utility.yul\":2012:2051   */\n      tag_78\n        /* \"#utility.yul\":2045:2050   */\n      dup3\n        /* \"#utility.yul\":2012:2051   */\n      tag_48\n      jump\t// in\n    tag_78:\n        /* \"#utility.yul\":2067:2138   */\n      tag_79\n        /* \"#utility.yul\":2131:2137   */\n      dup2\n        /* \"#utility.yul\":2126:2129   */\n      dup6\n        /* \"#utility.yul\":2067:2138   */\n      tag_49\n      jump\t// in\n    tag_79:\n        /* \"#utility.yul\":2060:2138   */\n      swap4\n      pop\n        /* \"#utility.yul\":2147:2212   */\n      tag_80\n        /* \"#utility.yul\":2205:2211   */\n      dup2\n        /* \"#utility.yul\":2200:2203   */\n      dup6\n        /* \"#utility.yul\":2193:2197   */\n      0x20\n        /* \"#utility.yul\":2186:2191   */\n      dup7\n        /* \"#utility.yul\":2182:2198   */\n      add\n        /* \"#utility.yul\":2147:2212   */\n      tag_50\n      jump\t// in\n    tag_80:\n        /* \"#utility.yul\":2237:2266   */\n      tag_81\n        /* \"#utility.yul\":2259:2265   */\n      dup2\n        /* \"#utility.yul\":2237:2266   */\n      tag_51\n      jump\t// in\n    tag_81:\n        /* \"#utility.yul\":2232:2235   */\n      dup5\n        /* \"#utility.yul\":2228:2267   */\n      add\n        /* \"#utility.yul\":2221:2267   */\n      swap2\n      pop\n        /* \"#utility.yul\":1988:2273   */\n      pop\n        /* \"#utility.yul\":1896:2273   */\n      swap3\n      swap2\n      pop\n      pop\n      jump\t// out\n        /* \"#utility.yul\":2279:2592   */\n    tag_20:\n        /* \"#utility.yul\":2392:2396   */\n      0x00\n        /* \"#utility.yul\":2430:2432   */\n      0x20\n        /* \"#utility.yul\":2419:2428   */\n      dup3\n        /* \"#utility.yul\":2415:2433   */\n      add\n        /* \"#utility.yul\":2407:2433   */\n      swap1\n      pop\n        /* \"#utility.yul\":2479:2488   */\n      dup2\n        /* \"#utility.yul\":2473:2477   */\n      dup2\n        /* \"#utility.yul\":2469:2489   */\n      sub\n        /* \"#utility.yul\":2465:2466   */\n      0x00\n        /* \"#utility.yul\":2454:2463   */\n      dup4\n        /* \"#utility.yul\":2450:2467   */\n      add\n        /* \"#utility.yul\":2443:2490   */\n      mstore\n        /* \"#utility.yul\":2507:2585   */\n      tag_83\n        /* \"#utility.yul\":2580:2584   */\n      dup2\n        /* \"#utility.yul\":2571:2577   */\n      dup5\n        /* \"#utility.yul\":2507:2585   */\n      tag_52\n      jump\t// in\n    tag_83:\n        /* \"#utility.yul\":2499:2585   */\n      swap1\n      pop\n        /* \"#utility.yul\":2279:2592   */\n      swap3\n      swap2\n      pop\n      pop\n      jump\t// out\n        /* \"#utility.yul\":2598:2778   */\n    tag_53:\n        /* \"#utility.yul\":2646:2723   */\n      0x4e487b7100000000000000000000000000000000000000000000000000000000\n        /* \"#utility.yul\":2643:2644   */\n      0x00\n        /* \"#utility.yul\":2636:2724   */\n      mstore\n        /* \"#utility.yul\":2743:2747   */\n      0x11\n        /* \"#utility.yul\":2740:2741   */\n      0x04\n        /* \"#utility.yul\":2733:2748   */\n      mstore\n        /* \"#utility.yul\":2767:2771   */\n      0x24\n        /* \"#utility.yul\":2764:2765   */\n      0x00\n        /* \"#utility.yul\":2757:2772   */\n      revert\n        /* \"#utility.yul\":2784:3015   */\n    tag_25:\n        /* \"#utility.yul\":2822:2825   */\n      0x00\n        /* \"#utility.yul\":2845:2868   */\n      tag_86\n        /* \"#utility.yul\":2862:2867   */\n      dup3\n        /* \"#utility.yul\":2845:2868   */\n      tag_44\n      jump\t// in\n    tag_86:\n        /* \"#utility.yul\":2836:2868   */\n      swap2\n      pop\n        /* \"#utility.yul\":2890:2956   */\n      0x7fffffffffffffffffffffffffffffffffffffffffffffffffffffffffffffff\n        /* \"#utility.yul\":2883:2888   */\n      dup3\n        /* \"#utility.yul\":2880:2957   */\n      sub\n        /* \"#utility.yul\":2877:2980   */\n      tag_87\n      jumpi\n        /* \"#utility.yul\":2960:2978   */\n      tag_88\n      tag_53\n      jump\t// in\n    tag_88:\n        /* \"#utility.yul\":2877:2980   */\n    tag_87:\n        /* \"#utility.yul\":3007:3008   */\n      0x01\n        /* \"#utility.yul\":3000:3005   */\n      dup3\n        /* \"#utility.yul\":2996:3009   */\n      add\n        /* \"#utility.yul\":2989:3009   */\n      swap1\n      pop\n        /* \"#utility.yul\":2784:3015   */\n      swap2\n      swap1\n      pop\n      jump\t// out\n        /* \"#utility.yul\":3021:3201   */\n    tag_54:\n        /* \"#utility.yul\":3069:3146   */\n      0x4e487b7100000000000000000000000000000000000000000000000000000000\n        /* \"#utility.yul\":3066:3067   */\n      0x00\n        /* \"#utility.yul\":3059:3147   */\n      mstore\n        /* \"#utility.yul\":3166:3170   */\n      0x22\n        /* \"#utility.yul\":3163:3164   */\n      0x04\n        /* \"#utility.yul\":3156:3171   */\n      mstore\n        /* \"#utility.yul\":3190:3194   */\n      0x24\n        /* \"#utility.yul\":3187:3188   */\n      0x00\n        /* \"#utility.yul\":3180:3195   */\n      revert\n        /* \"#utility.yul\":3207:3527   */\n    tag_35:\n        /* \"#utility.yul\":3251:3257   */\n      0x00\n        /* \"#utility.yul\":3288:3289   */\n      0x02\n        /* \"#utility.yul\":3282:3286   */\n      dup3\n        /* \"#utility.yul\":3278:3290   */\n      div\n        /* \"#utility.yul\":3268:3290   */\n      swap1\n      pop\n        /* \"#utility.yul\":3335:3336   */\n      0x01\n        /* \"#utility.yul\":3329:3333   */\n      dup3\n        /* \"#utility.yul\":3325:3337   */\n      and\n        /* \"#utility.yul\":3356:3374   */\n      dup1\n        /* \"#utility.yul\":3346:3427   */\n      tag_91\n      jumpi\n        /* \"#utility.yul\":3412:3416   */\n      0x7f\n        /* \"#utility.yul\":3404:3410   */\n      dup3\n        /* \"#utility.yul\":3400:3417   */\n      and\n        /* \"#utility.yul\":3390:3417   */\n      swap2\n      pop\n        /* \"#utility.yul\":3346:3427   */\n    tag_91:\n        /* \"#utility.yul\":3474:3476   */\n      0x20\n        /* \"#utility.yul\":3466:3472   */\n      dup3\n        /* \"#utility.yul\":3463:3477   */\n      lt\n        /* \"#utility.yul\":3443:3461   */\n      dup2\n        /* \"#utility.yul\":3440:3478   */\n      sub\n        /* \"#utility.yul\":3437:3521   */\n      tag_92\n      jumpi\n        /* \"#utility.yul\":3493:3511   */\n      tag_93\n      tag_54\n      jump\t// in\n    tag_93:\n        /* \"#utility.yul\":3437:3521   */\n    tag_92:\n        /* \"#utility.yul\":3258:3527   */\n      pop\n        /* \"#utility.yul\":3207:3527   */\n      swap2\n      swap1\n      pop\n      jump\t// out\n\n    auxdata: 0xa26469706673582212200e95e43522336109f38fa9162ef2ca16eea62cc84994a56094efe64108f539df64736f6c634300081e0033\n}\n",
				"bytecode": {
					"linkReferences": {},
					"object": "608060405234801561000f575f5ffd5b506040516108fe3803806108fe83398181016040528101906100319190610193565b805f908161003f91906103ea565b50506104b9565b5f604051905090565b5f5ffd5b5f5ffd5b5f5ffd5b5f5ffd5b5f601f19601f8301169050919050565b7f4e487b71000000000000000000000000000000000000000000000000000000005f52604160045260245ffd5b6100a58261005f565b810181811067ffffffffffffffff821117156100c4576100c361006f565b5b80604052505050565b5f6100d6610046565b90506100e2828261009c565b919050565b5f67ffffffffffffffff8211156101015761010061006f565b5b61010a8261005f565b9050602081019050919050565b8281835e5f83830152505050565b5f610137610132846100e7565b6100cd565b9050828152602081018484840111156101535761015261005b565b5b61015e848285610117565b509392505050565b5f82601f83011261017a57610179610057565b5b815161018a848260208601610125565b91505092915050565b5f602082840312156101a8576101a761004f565b5b5f82015167ffffffffffffffff8111156101c5576101c4610053565b5b6101d184828501610166565b91505092915050565b5f81519050919050565b7f4e487b71000000000000000000000000000000000000000000000000000000005f52602260045260245ffd5b5f600282049050600182168061022857607f821691505b60208210810361023b5761023a6101e4565b5b50919050565b5f819050815f5260205f209050919050565b5f6020601f8301049050919050565b5f82821b905092915050565b5f6008830261029d7fffffffffffffffffffffffffffffffffffffffffffffffffffffffffffffffff82610262565b6102a78683610262565b95508019841693508086168417925050509392505050565b5f819050919050565b5f819050919050565b5f6102eb6102e66102e1846102bf565b6102c8565b6102bf565b9050919050565b5f819050919050565b610304836102d1565b610318610310826102f2565b84845461026e565b825550505050565b5f5f905090565b61032f610320565b61033a8184846102fb565b505050565b5b8181101561035d576103525f82610327565b600181019050610340565b5050565b601f8211156103a25761037381610241565b61037c84610253565b8101602085101561038b578190505b61039f61039785610253565b83018261033f565b50505b505050565b5f82821c905092915050565b5f6103c25f19846008026103a7565b1980831691505092915050565b5f6103da83836103b3565b9150826002028217905092915050565b6103f3826101da565b67ffffffffffffffff81111561040c5761040b61006f565b5b6104168254610211565b610421828285610361565b5f60209050601f831160018114610452575f8415610440578287015190505b61044a85826103cf565b8655506104b1565b601f19841661046086610241565b5f5b8281101561048757848901518255600182019150602085019450602081019050610462565b868310156104a457848901516104a0601f8916826103b3565b8355505b6001600288020188555050505b505050505050565b610438806104c65f395ff3fe608060405234801561000f575f5ffd5b506004361061003f575f3560e01c80630400c2e7146100435780632a2db17514610073578063b59ba1cf146100a3575b5f5ffd5b61005d6004803603810190610058919061024e565b6100d3565b60405161006a9190610288565b60405180910390f35b61008d6004803603810190610088919061024e565b61010c565b60405161009a9190610288565b60405180910390f35b6100bd60048036038101906100b8919061024e565b61013f565b6040516100ca9190610311565b60405180910390f35b5f5f5f90505b600a8112156101035782806100ed9061035e565b93505080806100fb9061035e565b9150506100d9565b82915050919050565b5f5f5f90505b600a8112156101365782806101269061035e565b9350508080600101915050610112565b50819050919050565b60606104d282036101d9575f8054610156906103d2565b80601f0160208091040260200160405190810160405280929190818152602001828054610182906103d2565b80156101cd5780601f106101a4576101008083540402835291602001916101cd565b820191905f5260205f20905b8154815290600101906020018083116101b057829003601f168201915b50505050509050610212565b6040518060400160405280600b81526020017f4e6f7420616c6c6f77656400000000000000000000000000000000000000000081525090505b919050565b5f5ffd5b5f819050919050565b61022d8161021b565b8114610237575f5ffd5b50565b5f8135905061024881610224565b92915050565b5f6020828403121561026357610262610217565b5b5f6102708482850161023a565b91505092915050565b6102828161021b565b82525050565b5f60208201905061029b5f830184610279565b92915050565b5f81519050919050565b5f82825260208201905092915050565b8281835e5f83830152505050565b5f601f19601f8301169050919050565b5f6102e3826102a1565b6102ed81856102ab565b93506102fd8185602086016102bb565b610306816102c9565b840191505092915050565b5f6020820190508181035f83015261032981846102d9565b905092915050565b7f4e487b71000000000000000000000000000000000000000000000000000000005f52601160045260245ffd5b5f6103688261021b565b91507f7fffffffffffffffffffffffffffffffffffffffffffffffffffffffffffffff820361039a57610399610331565b5b600182019050919050565b7f4e487b71000000000000000000000000000000000000000000000000000000005f52602260045260245ffd5b5f60028204905060018216806103e957607f821691505b6020821081036103fc576103fb6103a5565b5b5091905056fea26469706673582212200e95e43522336109f38fa9162ef2ca16eea62cc84994a56094efe64108f539df64736f6c634300081e0033",
					"opcodes": "PUSH1 0x80 PUSH1 0x40 MSTORE CALLVALUE DUP1 ISZERO PUSH2 0xF JUMPI PUSH0 PUSH0 REVERT JUMPDEST POP PUSH1 0x40 MLOAD PUSH2 0x8FE CODESIZE SUB DUP1 PUSH2 0x8FE DUP4 CODECOPY DUP2 DUP2 ADD PUSH1 0x40 MSTORE DUP2 ADD SWAP1 PUSH2 0x31 SWAP2 SWAP1 PUSH2 0x193 JUMP JUMPDEST DUP1 PUSH0 SWAP1 DUP2 PUSH2 0x3F SWAP2 SWAP1 PUSH2 0x3EA JUMP JUMPDEST POP POP PUSH2 0x4B9 JUMP JUMPDEST PUSH0 PUSH1 0x40 MLOAD SWAP1 POP SWAP1 JUMP JUMPDEST PUSH0 PUSH0 REVERT JUMPDEST PUSH0 PUSH0 REVERT JUMPDEST PUSH0 PUSH0 REVERT JUMPDEST PUSH0 PUSH0 REVERT JUMPDEST PUSH0 PUSH1 0x1F NOT PUSH1 0x1F DUP4 ADD AND SWAP1 POP SWAP2 SWAP1 POP JUMP JUMPDEST PUSH32 0x4E487B7100000000000000000000000000000000000000000000000000000000 PUSH0 MSTORE PUSH1 0x41 PUSH1 0x4 MSTORE PUSH1 0x24 PUSH0 REVERT JUMPDEST PUSH2 0xA5 DUP3 PUSH2 0x5F JUMP JUMPDEST DUP2 ADD DUP2 DUP2 LT PUSH8 0xFFFFFFFFFFFFFFFF DUP3 GT OR ISZERO PUSH2 0xC4 JUMPI PUSH2 0xC3 PUSH2 0x6F JUMP JUMPDEST JUMPDEST DUP1 PUSH1 0x40 MSTORE POP POP POP JUMP JUMPDEST PUSH0 PUSH2 0xD6 PUSH2 0x46 JUMP JUMPDEST SWAP1 POP PUSH2 0xE2 DUP3 DUP3 PUSH2 0x9C JUMP JUMPDEST SWAP2 SWAP1 POP JUMP JUMPDEST PUSH0 PUSH8 0xFFFFFFFFFFFFFFFF DUP3 GT ISZERO PUSH2 0x101 JUMPI PUSH2 0x100 PUSH2 0x6F JUMP JUMPDEST JUMPDEST PUSH2 0x10A DUP3 PUSH2 0x5F JUMP JUMPDEST SWAP1 POP PUSH1 0x20 DUP2 ADD SWAP1 POP SWAP2 SWAP1 POP JUMP JUMPDEST DUP3 DUP2 DUP4 MCOPY PUSH0 DUP4 DUP4 ADD MSTORE POP POP POP JUMP JUMPDEST PUSH0 PUSH2 0x137 PUSH2 0x132 DUP5 PUSH2 0xE7 JUMP JUMPDEST PUSH2 0xCD JUMP JUMPDEST SWAP1 POP DUP3 DUP2 MSTORE PUSH1 0x20 DUP2 ADD DUP5 DUP5 DUP5 ADD GT ISZERO PUSH2 0x153 JUMPI PUSH2 0x152 PUSH2 0x5B JUMP JUMPDEST JUMPDEST PUSH2 0x15E DUP5 DUP3 DUP6 PUSH2 0x117 JUMP JUMPDEST POP SWAP4 SWAP3 POP POP POP JUMP JUMPDEST PUSH0 DUP3 PUSH1 0x1F DUP4 ADD SLT PUSH2 0x17A JUMPI PUSH2 0x179 PUSH2 0x57 JUMP JUMPDEST JUMPDEST DUP2 MLOAD PUSH2 0x18A DUP5 DUP3 PUSH1 0x20 DUP7 ADD PUSH2 0x125 JUMP JUMPDEST SWAP2 POP POP SWAP3 SWAP2 POP POP JUMP JUMPDEST PUSH0 PUSH1 0x20 DUP3 DUP5 SUB SLT ISZERO PUSH2 0x1A8 JUMPI PUSH2 0x1A7 PUSH2 0x4F JUMP JUMPDEST JUMPDEST PUSH0 DUP3 ADD MLOAD PUSH8 0xFFFFFFFFFFFFFFFF DUP2 GT ISZERO PUSH2 0x1C5 JUMPI PUSH2 0x1C4 PUSH2 0x53 JUMP JUMPDEST JUMPDEST PUSH2 0x1D1 DUP5 DUP3 DUP6 ADD PUSH2 0x166 JUMP JUMPDEST SWAP2 POP POP SWAP3 SWAP2 POP POP JUMP JUMPDEST PUSH0 DUP2 MLOAD SWAP1 POP SWAP2 SWAP1 POP JUMP JUMPDEST PUSH32 0x4E487B7100000000000000000000000000000000000000000000000000000000 PUSH0 MSTORE PUSH1 0x22 PUSH1 0x4 MSTORE PUSH1 0x24 PUSH0 REVERT JUMPDEST PUSH0 PUSH1 0x2 DUP3 DIV SWAP1 POP PUSH1 0x1 DUP3 AND DUP1 PUSH2 0x228 JUMPI PUSH1 0x7F DUP3 AND SWAP2 POP JUMPDEST PUSH1 0x20 DUP3 LT DUP2 SUB PUSH2 0x23B JUMPI PUSH2 0x23A PUSH2 0x1E4 JUMP JUMPDEST JUMPDEST POP SWAP2 SWAP1 POP JUMP JUMPDEST PUSH0 DUP2 SWAP1 POP DUP2 PUSH0 MSTORE PUSH1 0x20 PUSH0 KECCAK256 SWAP1 POP SWAP2 SWAP1 POP JUMP JUMPDEST PUSH0 PUSH1 0x20 PUSH1 0x1F DUP4 ADD DIV SWAP1 POP SWAP2 SWAP1 POP JUMP JUMPDEST PUSH0 DUP3 DUP3 SHL SWAP1 POP SWAP3 SWAP2 POP POP JUMP JUMPDEST PUSH0 PUSH1 0x8 DUP4 MUL PUSH2 0x29D PUSH32 0xFFFFFFFFFFFFFFFFFFFFFFFFFFFFFFFFFFFFFFFFFFFFFFFFFFFFFFFFFFFFFFFF DUP3 PUSH2 0x262 JUMP JUMPDEST PUSH2 0x2A7 DUP7 DUP4 PUSH2 0x262 JUMP JUMPDEST SWAP6 POP DUP1 NOT DUP5 AND SWAP4 POP DUP1 DUP7 AND DUP5 OR SWAP3 POP POP POP SWAP4 SWAP3 POP POP POP JUMP JUMPDEST PUSH0 DUP2 SWAP1 POP SWAP2 SWAP1 POP JUMP JUMPDEST PUSH0 DUP2 SWAP1 POP SWAP2 SWAP1 POP JUMP JUMPDEST PUSH0 PUSH2 0x2EB PUSH2 0x2E6 PUSH2 0x2E1 DUP5 PUSH2 0x2BF JUMP JUMPDEST PUSH2 0x2C8 JUMP JUMPDEST PUSH2 0x2BF JUMP JUMPDEST SWAP1 POP SWAP2 SWAP1 POP JUMP JUMPDEST PUSH0 DUP2 SWAP1 POP SWAP2 SWAP1 POP JUMP JUMPDEST PUSH2 0x304 DUP4 PUSH2 0x2D1 JUMP JUMPDEST PUSH2 0x318 PUSH2 0x310 DUP3 PUSH2 0x2F2 JUMP JUMPDEST DUP5 DUP5 SLOAD PUSH2 0x26E JUMP JUMPDEST DUP3 SSTORE POP POP POP POP JUMP JUMPDEST PUSH0 PUSH0 SWAP1 POP SWAP1 JUMP JUMPDEST PUSH2 0x32F PUSH2 0x320 JUMP JUMPDEST PUSH2 0x33A DUP2 DUP5 DUP5 PUSH2 0x2FB JUMP JUMPDEST POP POP POP JUMP JUMPDEST JUMPDEST DUP2 DUP2 LT ISZERO PUSH2 0x35D JUMPI PUSH2 0x352 PUSH0 DUP3 PUSH2 0x327 JUMP JUMPDEST PUSH1 0x1 DUP2 ADD SWAP1 POP PUSH2 0x340 JUMP JUMPDEST POP POP JUMP JUMPDEST PUSH1 0x1F DUP3 GT ISZERO PUSH2 0x3A2 JUMPI PUSH2 0x373 DUP2 PUSH2 0x241 JUMP JUMPDEST PUSH2 0x37C DUP5 PUSH2 0x253 JUMP JUMPDEST DUP2 ADD PUSH1 0x20 DUP6 LT ISZERO PUSH2 0x38B JUMPI DUP2 SWAP1 POP JUMPDEST PUSH2 0x39F PUSH2 0x397 DUP6 PUSH2 0x253 JUMP JUMPDEST DUP4 ADD DUP3 PUSH2 0x33F JUMP JUMPDEST POP POP JUMPDEST POP POP POP JUMP JUMPDEST PUSH0 DUP3 DUP3 SHR SWAP1 POP SWAP3 SWAP2 POP POP JUMP JUMPDEST PUSH0 PUSH2 0x3C2 PUSH0 NOT DUP5 PUSH1 0x8 MUL PUSH2 0x3A7 JUMP JUMPDEST NOT DUP1 DUP4 AND SWAP2 POP POP SWAP3 SWAP2 POP POP JUMP JUMPDEST PUSH0 PUSH2 0x3DA DUP4 DUP4 PUSH2 0x3B3 JUMP JUMPDEST SWAP2 POP DUP3 PUSH1 0x2 MUL DUP3 OR SWAP1 POP SWAP3 SWAP2 POP POP JUMP JUMPDEST PUSH2 0x3F3 DUP3 PUSH2 0x1DA JUMP JUMPDEST PUSH8 0xFFFFFFFFFFFFFFFF DUP2 GT ISZERO PUSH2 0x40C JUMPI PUSH2 0x40B PUSH2 0x6F JUMP JUMPDEST JUMPDEST PUSH2 0x416 DUP3 SLOAD PUSH2 0x211 JUMP JUMPDEST PUSH2 0x421 DUP3 DUP3 DUP6 PUSH2 0x361 JUMP JUMPDEST PUSH0 PUSH1 0x20 SWAP1 POP PUSH1 0x1F DUP4 GT PUSH1 0x1 DUP2 EQ PUSH2 0x452 JUMPI PUSH0 DUP5 ISZERO PUSH2 0x440 JUMPI DUP3 DUP8 ADD MLOAD SWAP1 POP JUMPDEST PUSH2 0x44A DUP6 DUP3 PUSH2 0x3CF JUMP JUMPDEST DUP7 SSTORE POP PUSH2 0x4B1 JUMP JUMPDEST PUSH1 0x1F NOT DUP5 AND PUSH2 0x460 DUP7 PUSH2 0x241 JUMP JUMPDEST PUSH0 JUMPDEST DUP3 DUP2 LT ISZERO PUSH2 0x487 JUMPI DUP5 DUP10 ADD MLOAD DUP3 SSTORE PUSH1 0x1 DUP3 ADD SWAP2 POP PUSH1 0x20 DUP6 ADD SWAP5 POP PUSH1 0x20 DUP2 ADD SWAP1 POP PUSH2 0x462 JUMP JUMPDEST DUP7 DUP4 LT ISZERO PUSH2 0x4A4 JUMPI DUP5 DUP10 ADD MLOAD PUSH2 0x4A0 PUSH1 0x1F DUP10 AND DUP3 PUSH2 0x3B3 JUMP JUMPDEST DUP4 SSTORE POP JUMPDEST PUSH1 0x1 PUSH1 0x2 DUP9 MUL ADD DUP9 SSTORE POP POP POP JUMPDEST POP POP POP POP POP POP JUMP JUMPDEST PUSH2 0x438 DUP1 PUSH2 0x4C6 PUSH0 CODECOPY PUSH0 RETURN INVALID PUSH1 0x80 PUSH1 0x40 MSTORE CALLVALUE DUP1 ISZERO PUSH2 0xF JUMPI PUSH0 PUSH0 REVERT JUMPDEST POP PUSH1 0x4 CALLDATASIZE LT PUSH2 0x3F JUMPI PUSH0 CALLDATALOAD PUSH1 0xE0 SHR DUP1 PUSH4 0x400C2E7 EQ PUSH2 0x43 JUMPI DUP1 PUSH4 0x2A2DB175 EQ PUSH2 0x73 JUMPI DUP1 PUSH4 0xB59BA1CF EQ PUSH2 0xA3 JUMPI JUMPDEST PUSH0 PUSH0 REVERT JUMPDEST PUSH2 0x5D PUSH1 0x4 DUP1 CALLDATASIZE SUB DUP2 ADD SWAP1 PUSH2 0x58 SWAP2 SWAP1 PUSH2 0x24E JUMP JUMPDEST PUSH2 0xD3 JUMP JUMPDEST PUSH1 0x40 MLOAD PUSH2 0x6A SWAP2 SWAP1 PUSH2 0x288 JUMP JUMPDEST PUSH1 0x40 MLOAD DUP1 SWAP2 SUB SWAP1 RETURN JUMPDEST PUSH2 0x8D PUSH1 0x4 DUP1 CALLDATASIZE SUB DUP2 ADD SWAP1 PUSH2 0x88 SWAP2 SWAP1 PUSH2 0x24E JUMP JUMPDEST PUSH2 0x10C JUMP JUMPDEST PUSH1 0x40 MLOAD PUSH2 0x9A SWAP2 SWAP1 PUSH2 0x288 JUMP JUMPDEST PUSH1 0x40 MLOAD DUP1 SWAP2 SUB SWAP1 RETURN JUMPDEST PUSH2 0xBD PUSH1 0x4 DUP1 CALLDATASIZE SUB DUP2 ADD SWAP1 PUSH2 0xB8 SWAP2 SWAP1 PUSH2 0x24E JUMP JUMPDEST PUSH2 0x13F JUMP JUMPDEST PUSH1 0x40 MLOAD PUSH2 0xCA SWAP2 SWAP1 PUSH2 0x311 JUMP JUMPDEST PUSH1 0x40 MLOAD DUP1 SWAP2 SUB SWAP1 RETURN JUMPDEST PUSH0 PUSH0 PUSH0 SWAP1 POP JUMPDEST PUSH1 0xA DUP2 SLT ISZERO PUSH2 0x103 JUMPI DUP3 DUP1 PUSH2 0xED SWAP1 PUSH2 0x35E JUMP JUMPDEST SWAP4 POP POP DUP1 DUP1 PUSH2 0xFB SWAP1 PUSH2 0x35E JUMP JUMPDEST SWAP2 POP POP PUSH2 0xD9 JUMP JUMPDEST DUP3 SWAP2 POP POP SWAP2 SWAP1 POP JUMP JUMPDEST PUSH0 PUSH0 PUSH0 SWAP1 POP JUMPDEST PUSH1 0xA DUP2 SLT ISZERO PUSH2 0x136 JUMPI DUP3 DUP1 PUSH2 0x126 SWAP1 PUSH2 0x35E JUMP JUMPDEST SWAP4 POP POP DUP1 DUP1 PUSH1 0x1 ADD SWAP2 POP POP PUSH2 0x112 JUMP JUMPDEST POP DUP2 SWAP1 POP SWAP2 SWAP1 POP JUMP JUMPDEST PUSH1 0x60 PUSH2 0x4D2 DUP3 SUB PUSH2 0x1D9 JUMPI PUSH0 DUP1 SLOAD PUSH2 0x156 SWAP1 PUSH2 0x3D2 JUMP JUMPDEST DUP1 PUSH1 0x1F ADD PUSH1 0x20 DUP1 SWAP2 DIV MUL PUSH1 0x20 ADD PUSH1 0x40 MLOAD SWAP1 DUP2 ADD PUSH1 0x40 MSTORE DUP1 SWAP3 SWAP2 SWAP1 DUP2 DUP2 MSTORE PUSH1 0x20 ADD DUP3 DUP1 SLOAD PUSH2 0x182 SWAP1 PUSH2 0x3D2 JUMP JUMPDEST DUP1 ISZERO PUSH2 0x1CD JUMPI DUP1 PUSH1 0x1F LT PUSH2 0x1A4 JUMPI PUSH2 0x100 DUP1 DUP4 SLOAD DIV MUL DUP4 MSTORE SWAP2 PUSH1 0x20 ADD SWAP2 PUSH2 0x1CD JUMP JUMPDEST DUP3 ADD SWAP2 SWAP1 PUSH0 MSTORE PUSH1 0x20 PUSH0 KECCAK256 SWAP1 JUMPDEST DUP2 SLOAD DUP2 MSTORE SWAP1 PUSH1 0x1 ADD SWAP1 PUSH1 0x20 ADD DUP1 DUP4 GT PUSH2 0x1B0 JUMPI DUP3 SWAP1 SUB PUSH1 0x1F AND DUP3 ADD SWAP2 JUMPDEST POP POP POP POP POP SWAP1 POP PUSH2 0x212 JUMP JUMPDEST PUSH1 0x40 MLOAD DUP1 PUSH1 0x40 ADD PUSH1 0x40 MSTORE DUP1 PUSH1 0xB DUP2 MSTORE PUSH1 0x20 ADD PUSH32 0x4E6F7420616C6C6F776564000000000000000000000000000000000000000000 DUP2 MSTORE POP SWAP1 POP JUMPDEST SWAP2 SWAP1 POP JUMP JUMPDEST PUSH0 PUSH0 REVERT JUMPDEST PUSH0 DUP2 SWAP1 POP SWAP2 SWAP1 POP JUMP JUMPDEST PUSH2 0x22D DUP2 PUSH2 0x21B JUMP JUMPDEST DUP2 EQ PUSH2 0x237 JUMPI PUSH0 PUSH0 REVERT JUMPDEST POP JUMP JUMPDEST PUSH0 DUP2 CALLDATALOAD SWAP1 POP PUSH2 0x248 DUP2 PUSH2 0x224 JUMP JUMPDEST SWAP3 SWAP2 POP POP JUMP JUMPDEST PUSH0 PUSH1 0x20 DUP3 DUP5 SUB SLT ISZERO PUSH2 0x263 JUMPI PUSH2 0x262 PUSH2 0x217 JUMP JUMPDEST JUMPDEST PUSH0 PUSH2 0x270 DUP5 DUP3 DUP6 ADD PUSH2 0x23A JUMP JUMPDEST SWAP2 POP POP SWAP3 SWAP2 POP POP JUMP JUMPDEST PUSH2 0x282 DUP2 PUSH2 0x21B JUMP JUMPDEST DUP3 MSTORE POP POP JUMP JUMPDEST PUSH0 PUSH1 0x20 DUP3 ADD SWAP1 POP PUSH2 0x29B PUSH0 DUP4 ADD DUP5 PUSH2 0x279 JUMP JUMPDEST SWAP3 SWAP2 POP POP JUMP JUMPDEST PUSH0 DUP2 MLOAD SWAP1 POP SWAP2 SWAP1 POP JUMP JUMPDEST PUSH0 DUP3 DUP3 MSTORE PUSH1 0x20 DUP3 ADD SWAP1 POP SWAP3 SWAP2 POP POP JUMP JUMPDEST DUP3 DUP2 DUP4 MCOPY PUSH0 DUP4 DUP4 ADD MSTORE POP POP POP JUMP JUMPDEST PUSH0 PUSH1 0x1F NOT PUSH1 0x1F DUP4 ADD AND SWAP1 POP SWAP2 SWAP1 POP JUMP JUMPDEST PUSH0 PUSH2 0x2E3 DUP3 PUSH2 0x2A1 JUMP JUMPDEST PUSH2 0x2ED DUP2 DUP6 PUSH2 0x2AB JUMP JUMPDEST SWAP4 POP PUSH2 0x2FD DUP2 DUP6 PUSH1 0x20 DUP7 ADD PUSH2 0x2BB JUMP JUMPDEST PUSH2 0x306 DUP2 PUSH2 0x2C9 JUMP JUMPDEST DUP5 ADD SWAP2 POP POP SWAP3 SWAP2 POP POP JUMP JUMPDEST PUSH0 PUSH1 0x20 DUP3 ADD SWAP1 POP DUP2 DUP2 SUB PUSH0 DUP4 ADD MSTORE PUSH2 0x329 DUP2 DUP5 PUSH2 0x2D9 JUMP JUMPDEST SWAP1 POP SWAP3 SWAP2 POP POP JUMP JUMPDEST PUSH32 0x4E487B7100000000000000000000000000000000000000000000000000000000 PUSH0 MSTORE PUSH1 0x11 PUSH1 0x4 MSTORE PUSH1 0x24 PUSH0 REVERT JUMPDEST PUSH0 PUSH2 0x368 DUP3 PUSH2 0x21B JUMP JUMPDEST SWAP2 POP PUSH32 0x7FFFFFFFFFFFFFFFFFFFFFFFFFFFFFFFFFFFFFFFFFFFFFFFFFFFFFFFFFFFFFFF DUP3 SUB PUSH2 0x39A JUMPI PUSH2 0x399 PUSH2 0x331 JUMP JUMPDEST JUMPDEST PUSH1 0x1 DUP3 ADD SWAP1 POP SWAP2 SWAP1 POP JUMP JUMPDEST PUSH32 0x4E487B7100000000000000000000000000000000000000000000000000000000 PUSH0 MSTORE PUSH1 0x22 PUSH1 0x4 MSTORE PUSH1 0x24 PUSH0 REVERT JUMPDEST PUSH0 PUSH1 0x2 DUP3 DIV SWAP1 POP PUSH1 0x1 DUP3 AND DUP1 PUSH2 0x3E9 JUMPI PUSH1 0x7F DUP3 AND SWAP2 POP JUMPDEST PUSH1 0x20 DUP3 LT DUP2 SUB PUSH2 0x3FC JUMPI PUSH2 0x3FB PUSH2 0x3A5 JUMP JUMPDEST JUMPDEST POP SWAP2 SWAP1 POP JUMP INVALID LOG2 PUSH5 0x6970667358 0x22 SLT KECCAK256 0xE SWAP6 RETF CALLDATALOAD 0x22 CALLER PUSH2 0x9F3 DUP16 0xA9 AND 0x2E CALLCODE 0xCA AND RETURNCONTRACT 0xA6 0x2C 0xC8 BLOBHASH SWAP5 0xA5 PUSH1 0x94 0xEF DUPN 0x41 ADDMOD CREATE2 CODECOPY 0xDF PUSH5 0x736F6C6343 STOP ADDMOD 0x1E STOP CALLER "
				},
				"gasEstimates": {
					"creation": {
						"codeDepositCost": "216000",
						"executionCost": "infinite",
						"totalCost": "infinite"
					},
					"external": {
						"checkMessage(int256)": "infinite",
						"count(int256)": "infinite",
						"countAgain(int256)": "infinite"
					}
				},
				"methodIdentifiers": {
					"checkMessage(int256)": "b59ba1cf",
					"count(int256)": "0400c2e7",
					"countAgain(int256)": "2a2db175"
				}
			},
			"storageLayout": {
				"storage": [
					{
						"astId": 3,
						"contract": "contracts/Day2.sol:Session02",
						"label": "message",
						"offset": 0,
						"slot": "0",
						"type": "t_string_storage"
					}
				],
				"types": {
					"t_string_storage": {
						"encoding": "bytes",
						"label": "string",
						"numberOfBytes": "32"
					}
				}
			},
			"userdoc": {
				"kind": "user",
				"methods": {},
				"version": 1
			}
		}
	}
}